:020000040800F2
:1000000000000220C92E0008952900089D2900083B
:10001000A5290008AD290008B52900080000000046
:10002000000000000000000000000000BD290008E2
:10003000CB29000800000000D9290008E7290008A2
:10004000192F0008192F0008192F0008192F000870
:10005000192F0008192F0008192F0008192F000860
:10006000192F0008192F0008192F0008192F000850
:10007000192F0008192F0008192F0008192F000840
:10008000192F0008192F0008192F0008192F000830
:10009000192F0008192F0008192F0008192F000820
:1000A000192F0008192F0008192F0008192F000810
:1000B000192F0008192F0008192F0008192F000800
:1000C000192F0008192F0008192F0008192F0008F0
:1000D000192F0008192F0008192F0008192F0008E0
:1000E000192F0008192F0008192F0008192F0008D0
:1000F000192F0008192F0008192F0008192F0008C0
:10010000192F0008192F0008192F0008192F0008AF
:10011000192F0008192F0008192F0008192F00089F
:10012000192F0008192F0008192F0008192F00088F
:10013000192F0008192F0008192F0008192F00087F
:10014000192F0008192F0008192F0008192F00086F
:10015000192F0008192F0008192F0008F529000889
:10016000192F0008192F0008192F0008192F00084F
:10017000192F0008192F0008192F0008000000008F
:08018000192F0008192F0008D7
:1001900010B5054C237833B9044B13B10448AFF3C1
:1001A00000800123237010BDD40100200000000056
:1001B000F4A0000808B5034B1BB103490348AFF393
:1001C000008008BD00000000D8010020F4A0000855
:1001D00001F0FF01102A2BDB10F0070F08D010F8F8
:1001E000013B013A8B422DD010F0070F42B3F6D1FC
:1001F000F0B441EA012141EA014122F007047FF015
:1002000000070023F0E80256083C85EA010586EA6B
:10021000010685FA47F5A3FA87F586FA47F6A5FAA7
:1002200087F68EB9EED1F0BC01F0FF0102F00702B3
:1002300032B110F8013B013A83EA010313B1F8D15E
:100240000020704701387047002D06BF354603383F
:10025000073815F0010F07D1013015F4807F02BF78
:10026000013015F4C03F0130F0BC0138704700BFC9
:10027000034613F8012B002AFBD1181A01387047E6
:1002800081F0004102E000BF83F0004330B54FEA47
:1002900041044FEA430594EA050F08BF90EA020FB4
:1002A0001FBF54EA000C55EA020C7FEA645C7FEA47
:1002B000655C00F0E2804FEA5454D4EB5555B8BF6A
:1002C0006D420CDD2C4480EA020281EA030382EADB
:1002D000000083EA010180EA020281EA0303362D6D
:1002E00088BF30BD11F0004F4FEA01314FF4801C40
:1002F0004CEA113102D0404261EB410113F0004F52
:100300004FEA03334CEA133302D0524263EB430308
:1003100094EA050F00F0A780A4F10104D5F1200EA6
:100320000DDB02FA0EFC22FA05F2801841F1000101
:1003300003FA0EF2801843FA05F359410EE0A5F1D5
:1003400020050EF1200E012A03FA0EFC28BF4CF006
:10035000020C43FA05F3C01851EBE37101F00045BC
:1003600007D54FF0000EDCF1000C7EEB00006EEBC9
:100370000101B1F5801F1BD3B1F5001F0CD3490853
:100380005FEA30004FEA3C0C04F101044FEA4452AA
:1003900012F5800F80F09A80BCF1004F08BF5FEA31
:1003A000500C50F1000041EB045141EA050130BD11
:1003B0005FEA4C0C404141EB0101013C28BFB1F523
:1003C000801FE9D291F0000F04BF01460020B1FA6E
:1003D00081F308BF2033A3F10B03B3F120020CDA41
:1003E0000C3208DD02F1140CC2F10C0201FA0CF01F
:1003F00021FA02F10CE002F11402D8BFC2F1200C84
:1004000001FA02F120FA0CFCDCBF41EA0C01904039
:10041000E41AA2BF01EB0451294330BD6FEA040482
:100420001F3C1CDA0C340EDC04F11404C4F120026D
:1004300020FA04F001FA02F340EA030021FA04F37F
:1004400045EA030130BDC4F10C04C4F1200220FAD6
:1004500002F001FA04F340EA0300294630BD21FA14
:1004600004F0294630BD94F0000F83F4801306BFDA
:1004700081F480110134013D4EE77FEA645C18BFCE
:100480007FEA655C29D094EA050F08BF90EA020F65
:1004900005D054EA000C04BF1946104630BD91EA5D
:1004A000030F1EBF0021002030BD5FEA545C05D160
:1004B0004000494128BF41F0004130BD14F580049F
:1004C0003CBF01F5801130BD01F0004545F0FE4113
:1004D00041F470014FF0000030BD7FEA645C1ABF48
:1004E000194610467FEA655C1CBF0B46024650EA7F
:1004F000013406BF52EA033591EA030F41F40021AB
:1005000030BD00BF90F0000F04BF0021704730B530
:100510004FF4806404F132044FF000054FF0000105
:1005200050E700BF90F0000F04BF0021704730B5C6
:100530004FF4806404F1320410F0004548BF40429B
:100540004FF000013EE700BF42004FEAE2014FEAF0
:1005500031014FEA02701FBF12F07F4393F07F4FCB
:1005600081F06051704732F07F4208BF704793F0CE
:100570007F4F04BF41F40021704730B54FF46074E1
:1005800001F0004521F000411CE700BF50EA0102E4
:1005900008BF704730B54FF000050AE050EA01028D
:1005A00008BF704730B511F0004502D5404261EBFD
:1005B00041014FF4806404F132045FEA915C3FF43E
:1005C000D8AE4FF003025FEADC0C18BF03325FEADB
:1005D000DC0C18BF033202EBDC02C2F1200300FA8C
:1005E00003FC20FA02F001FA03FE40EA0E0021FAB1
:1005F00002F11444BDE600BF70B54FF0FF0C4CF49F
:10060000E06C1CEA11541DBF1CEA135594EA0C0F50
:1006100095EA0C0F00F0DEF82C4481EA030621EA8B
:100620004C5123EA4C5350EA013518BF52EA0335C6
:1006300041F4801143F4801338D0A0FB02CE4FF078
:100640000005E1FB02E506F00042E0FB03E54FF0A8
:100650000006E1FB03569CF0000F18BF4EF0010EA0
:10066000A4F1FF04B6F5007F64F5407404D25FEA9C
:100670004E0E6D4146EB060642EAC62141EA55514F
:100680004FEAC52040EA5E504FEACE2EB4F1FD0C91
:1006900088BFBCF5E06F1ED8BEF1004F08BF5FEA0F
:1006A000500E50F1000041EB045170BD06F00046C1
:1006B00046EA010140EA020081EA0301B4EB5C046E
:1006C000C2BFD4EB0C0541EA045170BD41F4801166
:1006D0004FF0000E013C00F3AB8014F1360FDEBF8B
:1006E000002001F0004170BDC4F10004203C35DA67
:1006F0000C341BDC04F11404C4F1200500FA05F3EA
:1007000020FA04F001FA05F240EA020001F000428A
:1007100021F0004110EBD37021FA04F642EB060100
:100720005EEA430E08BF20EAD37070BDC4F10C042A
:10073000C4F1200500FA04F320FA05F001FA04F2EE
:1007400040EA020001F0004110EBD37041F10001DA
:100750005EEA430E08BF20EAD37070BDC4F12005E5
:1007600000FA05F24EEA020E20FA04F301FA05F24D
:1007700043EA020321FA04F001F0004121FA04F2F5
:1007800020EA020000EBD3705EEA430E08BF20EAC5
:10079000D37070BD94F0000F0FD101F000464000FF
:1007A00041EB010111F4801F08BF013CF7D041EA81
:1007B000060195F0000F18BF704703F00046520085
:1007C00043EB030313F4801F08BF013DF7D043EA56
:1007D0000603704794EA0C0F0CEA135518BF95EA0C
:1007E0000C0F0CD050EA410618BF52EA4306D1D193
:1007F00081EA030101F000414FF0000070BD50EAB2
:10080000410606BF1046194652EA430619D094EA3B
:100810000C0F02D150EA013613D195EA0C0F05D125
:1008200052EA03361CBF104619460AD181EA030179
:1008300001F0004141F0FE4141F470014FF0000031
:1008400070BD41F0FE4141F4780170BD70B54FF0CC
:10085000FF0C4CF4E06C1CEA11541DBF1CEA13554C
:1008600094EA0C0F95EA0C0F00F0A7F8A4EB05042E
:1008700081EA030E52EA03354FEA013100F0888025
:100880004FEA03334FF0805545EA131343EA1263EE
:100890004FEA022245EA111545EA10654FEA0026A3
:1008A0000EF000419D4208BF964244F1FD0404F55C
:1008B000407402D25B084FEA3202B61A65EB0305B8
:1008C0005B084FEA32024FF480104FF4002CB6EB75
:1008D000020E75EB030E22BFB61A754640EA0C00F5
:1008E0005B084FEA3202B6EB020E75EB030E22BF35
:1008F000B61A754640EA5C005B084FEA3202B6EB76
:10090000020E75EB030E22BFB61A754640EA9C0034
:100910005B084FEA3202B6EB020E75EB030E22BF04
:10092000B61A754640EADC0055EA060E18D04FEAC2
:10093000051545EA16754FEA06164FEAC30343EA62
:1009400052734FEAC2025FEA1C1CC0D111F4801F2F
:100950000BD141EA00014FF000004FF0004CB6E728
:1009600011F4801F04BF01430020B4F1FD0C88BFC7
:10097000BCF5E06F3FF6AFAEB5EB030C04BFB6EBD2
:10098000020C5FEA500C50F1000041EB045170BDC5
:100990000EF0004E4EEA113114EB5C04C2BFD4EBF2
:1009A0000C0541EA045170BD41F480114FF0000E76
:1009B000013C90E645EA060E8DE60CEA135594EAF2
:1009C0000C0F08BF95EA0C0F3FF43BAF94EA0C0FF5
:1009D0000AD150EA01347FF434AF95EA0C0F7FF46A
:1009E00025AF104619462CE795EA0C0F06D152EABE
:1009F00003353FF4FDAE1046194622E750EA4106A2
:100A000018BF52EA43067FF4C5AE50EA41047FF4B2
:100A10000DAF52EA43057FF4EBAE12E74FF0FF3C17
:100A200006E000BF4FF0010C02E000BF4FF0010CE8
:100A30004DF804CD4FEA410C7FEA6C5C4FEA430C61
:100A400018BF7FEA6C5C1BD001B050EA410C0CBFB0
:100A500052EA430C91EA030F02BF90EA020F002012
:100A6000704710F1000F91EA030F58BF994208BF79
:100A700090422CBFD8176FEAE37040F00100704736
:100A80004FEA410C7FEA6C5C02D150EA013C07D18D
:100A90004FEA430C7FEA6C5CD6D152EA033CD3D0D8
:100AA0005DF8040B704700BF8446104662468C46D2
:100AB0001946634600E000BF01B5FFF7B7FF002805
:100AC00048BF10F1000F01BD4DF808EDFFF7F4FF2E
:100AD0000CBF012000205DF808FB00BF4DF808EDB9
:100AE000FFF7EAFF34BF012000205DF808FB00BFDC
:100AF0004DF808EDFFF7E0FF94BF012000205DF8FE
:100B000008FB00BF4DF808EDFFF7CEFF94BF0120B2
:100B100000205DF808FB00BF4DF808EDFFF7C4FFAB
:100B200034BF012000205DF808FB00BF4FEA410CF4
:100B30007FEA6C5C02D150EA013C0AD14FEA430CD7
:100B40007FEA6C5C02D152EA033C02D14FF0000014
:100B500070474FF0010070474FEA410212F5001252
:100B600015D211D56FF47873B3EB625212D94FEAF4
:100B7000C12343F0004343EA505311F0004F23FADE
:100B800002F018BF404270474FF00000704750EA33
:100B9000013005D111F0004008BF6FF000407047F0
:100BA0004FF00000704700BF4A0011D212F500124A
:100BB00011D20DD56FF47873B3EB62520ED44FEAB5
:100BC000C12343F0004343EA505323FA02F0704735
:100BD0004FF00000704750EA013002D14FF0FF3073
:100BE00070474FF00000704753B94AB9002908BF59
:100BF00000281CBF4FF0FF314FF0FF3000F06AB902
:100C0000ADF1080C6DE904CE00F006F8DDF804E063
:100C1000DDE9022304B070472DE9F047089D0C463A
:100C2000002B4ED194468C458646B2FA82F262D9A8
:100C30004AB1C2F12003914020FA03F30CFA02FCFE
:100C4000194300FA02FE4FEA1C471FFA8CF6B1FB6B
:100C5000F7F44FEA1E4307FB141143EA014304FB78
:100C600006F199420AD91CEB030304F1FF3080F02E
:100C70001281994240F20F81023C6344591A1FFAD3
:100C80008EF3B1FBF7F007FB101143EA014300FBC1
:100C900006F69E420AD91CEB030300F1FF3180F0F7
:100CA000FC809E4240F2F980634402389B1B40EA7C
:100CB000044000211DB1D3400022C5E90032BDE847
:100CC000F0878B4205D90DB1C5E900010021084626
:100CD000F5E7B3FA83F1002946D1A34202D390424B
:100CE000C0F0F080861A64EB03030120002DE6D0EB
:100CF000C5E90063E3E7002A40F09080A1EB0C0413
:100D00004FEA1C481FFA8CF70121B4FBF8F64FEAB2
:100D10001E4308FB164443EA044307FB06F09842CF
:100D200008D91CEB030306F1FF3402D2984200F20B
:100D3000CD8026461C1A1FFA8EF3B4FBF8F008FB90
:100D4000104443EA044300FB07F79F4208D91CEB19
:100D5000030300F1FF3402D29F4200F2B08020462C
:100D6000DB1B40EA0640A5E7C1F120068B4022FAD2
:100D700006F71F4320FA06FC04FA01F343EA0C03CA
:100D8000F44000FA01F8380C4FEA1349B4FBF0FEC6
:100D90001FFA87FC00FB1E4449EA04440EFB0CF9D1
:100DA000A14502FA01F20AD93C190EF1FF3A80F08E
:100DB0008480A14540F28180AEF1020E3C44A4EB58
:100DC00009041FFA83F9B4FBF0F300FB134449EA6A
:100DD000044403FB0CFCA44507D93C1903F1FF3084
:100DE00067D2A44565D9023B3C4443EA0E40A0FBD0
:100DF0000293A4EB0C049C42CE469C4651D34ED0A9
:100E000055B1B8EB0E0364EB0C0404FA06F6CB40C4
:100E10001E43CC40C5E90064002150E7C2F1200325
:100E200020FA03F10CFA02FC24FA03F394400C4379
:100E30004FEA1C4800FA02FE1FFA8CF7B3FBF8F0E9
:100E400008FB1031230C43EA014300FB07F19942F0
:100E500008D91CEB030300F1FF362CD299422AD9A2
:100E6000023863445B1AA4B2B3FBF8F108FB1133F8
:100E700044EA034401FB07F3A34208D91CEB040432
:100E800001F1FF3613D2A34211D902396444E41AA6
:100E900041EA004139E70446F0E6084606E7C8455E
:100EA000AED2B9EB020E63EB070C0138A8E731466E
:100EB000EDE7034699E73046D4E7D6467FE763443B
:100EC00002384DE70646234608460FE7023E6344D4
:100ED00030E700BF704700BF80B483B000AF7860D8
:100EE00000BF0C37BD465DF8047B704780B586B007
:100EF00000AFF860B9601346FB712C2006F08EFA43
:100F000003467B617B69002B01D100231EE07B69D6
:100F1000FA681A607B6904331F22B968184607F023
:100F2000CCF87B69002283F823207B69002283F8B8
:100F300024207B690022DA847B69064A9A62FB7965
:100F4000002B02D0786900F007F87B691846183743
:100F5000BD4680BDC10F000880B586B002AF786085
:100F60000123FB737B68186807F10F024FF0FF3312
:100F700000930123462103F01DF90723FB737B68CF
:100F8000186807F10F024FF0FF3300930123462149
:100F900003F010F91023FB737B68186807F10F0248
:100FA0004FF0FF3300930123462103F003F97B68E0
:100FB000012283F8242000BF1037BD4680BD000009
:100FC00080B586B002AF78607B6893F8243083F0F8
:100FD0000103DBB2002B2BD17B68186807F10802F4
:100FE0004FF0FF3300930223462103F0E1F903465B
:100FF000FB73FB7B002B1CD13B7A1B021AB27B7A62
:101000001BB213431BB2BB81BB891846FFF78AFA98
:101010004FF03332084BFFF719FC02460B461046DF
:101020001946FFF7C1FD03469AB27B68DA8400E0F7
:1010300000BF1037BD4680BD3333F33F80B483B06B
:1010400000AF0346FB800A4B1B681B6800225A62F4
:1010500000BF074B1B681B685A6AFB889A42F8D38B
:1010600000BF00BF0C37BD465DF8047B704700BF72
:10107000F001002080B588B000AF78600B467B801F
:1010800007F10C0300221A605A609A60DA601A6154
:101090007B88FB6001233B610023BB6107F10C03EC
:1010A0001946786802F074FD00BF2037BD4680BD48
:1010B00080B588B000AF78600B467B8007F10C03E9
:1010C00000221A605A609A60DA601A617B88FB60BD
:1010D00000233B6100237B6107F10C03194678680C
:1010E00002F056FD00BF2037BD4680BD80B500AF81
:1010F00080210C48FFF7BEFF00228021094802F042
:10110000FBFE022001F07CFF01228021054802F055
:10111000F3FE1E20FFF792FF80210248FFF7C8FF71
:1011200000BF80BD0000024080B582B000AF002348
:10113000FB712820FFF782FF8021114802F0C4FED6
:101140000346002B0ED15020FFF778FF80210C487A
:1011500002F0BAFE0346002B02D00123FB7101E02E
:101160000023FB7100BF8021054802F0ADFE03465D
:10117000002BF8D1FB7918460837BD4680BD00BF6B
:101180000000024080B582B000AF0023BB71002395
:10119000FB7137E000BF80211E4802F095FE034638
:1011A000002BF8D02820FFF749FF8021194802F0D2
:1011B0008BFE0346002B0ED1FB79C3F107030122FE
:1011C00002FA03F35BB2DB435AB297F906301340DD
:1011D0005BB2BB7113E0FB79C3F10703012202FA92
:1011E00003F35AB297F9063013435BB2BB7100BFE9
:1011F0008021084802F068FE0346002BF8D1FB79F5
:101200000133FB71FB79072BC4D9BB79184608372A
:10121000BD4680BD0000024080B483B000AF78605E
:10122000044A7B68136000BF0C37BD465DF8047B41
:10123000704700BFF001002080B586B000AF786035
:101240003960FFF753FFFFF76FFF0346002B64D0B1
:10125000FFF798FF03463B73FFF794FF03467B734A
:10126000FFF790FF0346BB73FFF78CFF0346FB734A
:10127000FFF788FF03463B743A7B7B7B1344DAB26B
:10128000BB7B1344DAB2FB7B1344FB753B7CFA7DDA
:101290009A4240D13B7B1B021AB27B7B1BB21343A9
:1012A0001BB2BB82BB7B1B021AB2FB7B1BB213437C
:1012B0001BB27B82BB8A07EE903AB8EEE77AF2EE79
:1012C000046AC7EE267A3B68C3ED007AB7F912309C
:1012D000002B12DA7B8AC3F30E037B827B8A07EE34
:1012E000903AB8EEE77AF2EE046AC7EE267AF1EEAB
:1012F000677A7B68C3ED007A0BE07B8A07EE903A51
:10130000B8EEE77AF2EE046AC7EE267A7B68C3EDA0
:10131000007A002302E0022300E001231846183778
:10132000BD4680BD80B584B000AF3B4600221A6048
:101330005A609A60DA60214B214A1A601F4B4FF4C1
:1013400080325A601D4B00229A601C4B00221A61A9
:101350001A4B00221A76194B002283F82020174BD3
:101360000022DA62154B174A9A62144B0022DA60A7
:10137000124B0122DA61114B002283F830200F4B0F
:1013800001225A610D4801F05FFE0346002B01D097
:1013900001F0D2FA06233B6001237B600623BB6089
:1013A0003B461946054802F031F80346002B01D0B0
:1013B00001F0C2FA00BF1037BD4680BDF401002025
:1013C000002001400100000F80B58AB000AF7860B6
:1013D00007F1140300221A605A609A60DA601A61F9
:1013E0007B681B68174A934227D100233B61164B49
:1013F0005B6C154A43F480735364134B5B6C03F4CA
:1014000080733B613B690023FB600F4B1B6B0E4AF3
:1014100043F0010313630C4B1B6B03F00103FB60F0
:10142000FB6840237B610323BB610023FB6107F161
:1014300014031946054802F0ABFB00BF2837BD4630
:1014400080BD00BF00200140003802400000024083
:1014500080B58AB000AF07F1140300221A605A6009
:101460009A60DA601A6100233B61414B1B6B404A72
:1014700043F0800313633E4B1B6B03F080033B611F
:101480003B690023FB603A4B1B6B394A43F0010375
:101490001363374B1B6B03F00103FB60FB680023F6
:1014A000BB60334B1B6B324A43F002031363304B78
:1014B0001B6B03F00203BB60BB6800237B602C4BFB
:1014C0001B6B2B4A43F010031363294B1B6B03F078
:1014D00010037B607B6800233B60254B1B6B244A19
:1014E00043F004031363224B1B6B03F004033B60C4
:1014F0003B68012280211F4802F0FEFC00220621E9
:101500001D4802F0F9FC00224FF4C0711B4802F0A4
:10151000F3FC80237B610123BB610023FB6100237B
:101520003B6207F114031946124802F031FB06230F
:101530007B610123BB610023FB6100233B6207F158
:10154000140319460C4802F023FB4FF4C0737B616F
:101550000123BB610023FB6100233B6207F11403FD
:101560001946064802F014FB00BF2837BD4680BD6F
:101570000038024000000240000402400010024017
:1015800080B500AF124B134A1A60114B124A5A60D1
:101590000F4B00229A600E4B0022DA600C4B4FF486
:1015A00080421A610A4B00225A61094B00229A615B
:1015B000074B0022DA61064B00221A62044802F04F
:1015C000B5FC0346002B01D001F0B6F900BF80BD89
:1015D0003C02002000540040A086010080B58AB083
:1015E00000AF786007F1140300221A605A609A6015
:1015F000DA601A617B681B68194A93422BD1002379
:101600003B61184B1B6B174A43F002031363154BE6
:101610001B6B03F002033B613B69C0237B61122318
:10162000BB610023FB6103233B6204237B6207F160
:10163000140319460C4802F0ABFA0023FB60094B77
:101640001B6C084A43F400131364064B1B6C03F431
:101650000013FB60FB6800BF2837BD4680BD00BF9C
:1016600000540040003802400004024080B586B0BB
:1016700002AF78600B46FB70FB7823F00F03FB731F
:10168000FB781B01BB73FB7B43F00C03DBB23B72AB
:10169000FB7B43F00803DBB27B72BB7B43F00C03A4
:1016A000DBB2BB72BB7B43F00803DBB2FB727B682F
:1016B00018687B681B79194607F1080264230093B8
:1016C000042302F077FD00BF1037BD4680BD80B512
:1016D00086B002AF78600B46FB70FB7823F00F03F7
:1016E000FB73FB781B01BB73FB7B43F00D03DBB289
:1016F0003B72FB7B43F00903DBB27B72BB7B43F0A5
:101700000D03DBB2BB72BB7B43F00903DBB2FB72A0
:101710007B6818687B681B79194607F10802642307
:101720000093042302F046FD00BF1037BD4680BD84
:1017300080B584B000AF786080217868FFF796FFAD
:101740000023FB6006E020217868FFF7C0FFFB68FC
:101750000133FB60FB684F2BF5DD00BF00BF103786
:10176000BD4680BD80B586B000AFF860B9607A60D4
:101770007B68032B24D801A252F823F08D170008B0
:1017800097170008A1170008AB170008BB68DBB269
:10179000803BFB750EE0BB68DBB2403BFB7509E0AC
:1017A000BB68DBB26C3BFB7504E0BB68DBB22C3B77
:1017B000FB7500BFFB7D1946F868FFF757FF00E097
:1017C00000BF1837BD4680BD80B582B000AF7860DD
:1017D000322001F015FC30217868FFF747FF052023
:1017E00001F00EFC30217868FFF740FF012001F086
:1017F00007FC30217868FFF739FF0A2001F000FC70
:1018000020217868FFF732FF0A2001F0F9FB282138
:101810007868FFF72BFF012001F0F2FB08217868C0
:10182000FFF724FF012001F0EBFB01217868FFF7AF
:101830001DFF022001F0E4FB06217868FFF716FF88
:10184000012001F0DDFB0C217868FFF70FFF00BFDE
:101850000837BD4680BD80B582B000AF7860396082
:1018600007E03B685A1C3A601B7819467868FFF716
:101870002EFF3B681B78002BF3D100BF00BF083759
:10188000BD4680BD80B500AF1448FFF751FF002270
:1018900001211248FFF766FF11491048FFF7DBFFEF
:1018A000012203210D48FFF75DFF0E490B48FFF7AA
:1018B000D2FF022201210948FFF754FF0A490748D5
:1018C000FFF7C9FF032203210448FFF74BFF074935
:1018D0000248FFF7C0FF00BF80BD00BF900200209C
:1018E00010A1000824A1000834A1000848A10008A4
:1018F00080B582B000AF0346FB711E48FFF718FFAA
:10190000002200211B48FFF72DFF1B491948FFF754
:10191000A2FF012200211748FFF724FFFB79002BCB
:1019200001D1164B00E0164B19461248FFF793FF02
:10193000022200210F48FFF715FFFB79012B01D18F
:10194000104B00E0104B19460A48FFF784FF0322B2
:1019500000210848FFF706FFFB79022B01D10B4B52
:1019600000E00B4B19460348FFF775FF00BF08372F
:10197000BD4680BD9002002058A1000868A1000863
:1019800074A1000880A100088CA1000898A100089B
:10199000A4A1000880B58CB002AF87ED030AC7EDA3
:1019A000020A786039604348FFF7C2FE0022002136
:1019B0004048FFF7D7FE40493E48FFF74CFF012261
:1019C00000213C48FFF7CEFED7ED037AFDEEE76A33
:1019D000D7ED037AB2EE047A67EE877AFDEEE77A06
:1019E00017EE901A354B83FB01239A10CB17D21AAE
:1019F00013469B0013445B00CA1A07F114000092BF
:101A000016EE903A2E4A142106F0D8FA07F1140384
:101A100019462848FFF71FFFDF212648FFF757FE2A
:101A200043212448FFF753FE022200212148FFF7FB
:101A300099FED7ED027AFDEEE76AD7ED027AB2EEB3
:101A4000047A67EE877AFDEEE77A17EE901A1B4B61
:101A500083FB01239A10CB17D21A13469B00134421
:101A60005B00CA1A07F11400009216EE903A154A6C
:101A7000142106F0A3FA07F1140319460D48FFF7E5
:101A8000EAFE032200210B48FFF76CFE07F1140069
:101A90003B6800937B680C4A142106F08FFA07F12B
:101AA000140319460348FFF7D6FE00BF2837BD468A
:101AB00080BD00BF90020020B0A100086766666686
:101AC000C4A10008D8A10008ECA1000880B582B02C
:101AD00000AF2048FFF72CFE002200211D48FFF731
:101AE00041FE1D491B48FFF7B6FE0122002119489F
:101AF000FFF738FE19491748FFF7ADFE01220A210A
:101B00001448FFF72FFE00237B6006E02A211148CE
:101B1000FFF7DDFD7B6801337B60114B1B781A46B4
:101B20007B689342F2DB022200210A48FFF71AFE8B
:101B30000C490848FFF78FFE032200210548FFF7F4
:101B400011FE09490348FFF786FE00BF0837BD466E
:101B500080BD00BF90020020FCA100080CA200087C
:101B6000AB02002018A2000824A2000880B582B0B1
:101B700000AF2048FFF7DCFD002200211D48FFF7E1
:101B8000F1FD1D491B48FFF766FE0122002119489F
:101B9000FFF7E8FD19491748FFF75DFE01220A210A
:101BA0001448FFF7DFFD00237B6006E02A2111487F
:101BB000FFF78DFD7B6801337B60114B1B781A4664
:101BC0007B689342F2DB022200210A48FFF7CAFD3C
:101BD0000C490848FFF73FFE032200210548FFF7A4
:101BE000C1FD09490348FFF736FE00BF0837BD466F
:101BF00080BD00BF9002002030A200080CA20008A7
:101C0000AB02002018A2000824A2000880B582B010
:101C100000AF78607B681B68C14A934240F04583FF
:101C2000C04B1B78233B502B00F23A8301A252F8A1
:101C300023F000BF6F1E0008A1220008A1220008A7
:101C4000A1220008A1220008A1220008A122000868
:101C5000A1220008A1220008A1220008A122000858
:101C6000A1220008A12200088B2000088B20000878
:101C70008B2000088B2000088B2000088B20000898
:101C80008B2000088B2000088B2000088B20000888
:101C9000A1220008A1220008A1220008A122000818
:101CA000A1220008A1220008A1220008DD1D0008D1
:101CB000FB1D0008131F0008A1220008C521000811
:101CC0006F2100087F200008A12200087F1F000864
:101CD000A1220008A1220008A1220008A1220008D8
:101CE000CF1F000829210008B31F0008A122000807
:101CF000EB1F0008611F00082F200008D3210008F7
:101D00003B200008911F0008DB200008612100082B
:101D10005D220008A1220008A1220008A1220008DB
:101D2000A1220008A1220008A1220008C11D00086C
:101D3000A1220008A1220008A91D0008A122000874
:101D4000B51D0008911D00089D1D0008A122000876
:101D5000791D0008851D0008A1220008A1220008A5
:101D6000A1220008A1220008A1220008A122000847
:101D7000A1220008CF1D0008012202216A4802F0BA
:101D8000BBF88DE200220221674802F0B5F887E235
:101D900001220421644802F0AFF881E2002204210C
:101DA000614802F0A9F87BE2012280215F4802F03D
:101DB000A3F875E2002280215C4802F09DF86FE2F2
:101DC00001224FF48071594802F096F868E200222F
:101DD0004FF48071554802F08FF861E2544B0122B4
:101DE0001A70544B00221A70534B00221A70514B38
:101DF0001B781846FFF77CFD52E24D4B1B78012BF8
:101E00001BD14D4B1B7883F00103DBB2002B14D0A8
:101E1000484B1B785A1C494B83FB0231D317C91A14
:101E20000B465B000B44D11ACAB2424B1A70414BAD
:101E30001B781846FFF75CFD29E23D4B1B78032B0E
:101E400040F025823E4B1B785A1C3C4B83FB0231F1
:101E5000D317C91A0B465B000B44D11ACAB2384BD0
:101E60001A70374B1B78184600F058FA0FE2304BC7
:101E70001B78012B26D1304B1B7883F00103DBB29A
:101E8000002B1FD0032200212E48FFF76BFC294BAB
:101E90001B78022B10D0022B39DC002B02D0012B37
:101EA00005D034E028492748FFF7D5FC09E0274949
:101EB0002448FFF7D0FC04E025492248FFF7CBFC7B
:101EC00000BF24E01A4B1B78032B40F0E281032271
:101ED00000211C48FFF746FC194B1B78022B11D040
:101EE000022B00F3D681002B02D0012B05D0D0E1CC
:101EF00018491448FFF7AFFC0AE017491148FFF7EB
:101F0000AAFC05E015490F48FFF7A5FC00E000BF5B
:101F1000BFE1074B02221A70074B00221A70BFE183
:101F200000140140A0020020000402400010024002
:101F30009802002099020020AC0200205655555509
:101F40009A0200209002002044A2000858A2000833
:101F50006CA2000880A2000894A20008A8A20008B1
:101F6000A84B03221A70A84B00221A70A74B00221C
:101F70001A70A54B1B78184600F0D0F990E1A14BE0
:101F800000221A70A14B00221A70FFF77BFC87E138
:101F90009C4B04221A709D4B01221A709C4B00220C
:101FA0001A70072200219B4806F07FF8FFF7DEFD3C
:101FB00076E1964B01221A70954B00221A70072287
:101FC0000021944806F071F8FFF780FD68E18F4B1F
:101FD00001221A708E4B00221A70072200218D48B0
:101FE00006F063F800F0ECF95AE1884B00221A7011
:101FF0008948FFF79DFB002200218748FFF7B2FBCD
:1020000086498548FFF727FC012200218248FFF717
:10201000A9FB83498048FFF71EFC032200217E486C
:10202000FFF7A0FB7F497C48FFF715FC38E1774BB1
:1020300000221A7000F04AFA32E1744B00221A7042
:102040007548FFF775FB002200217348FFF78AFBF4
:1020500075497148FFF7FFFB012200216E48FFF729
:1020600081FB72496C48FFF7F6FB032200216A48A6
:10207000FFF778FB6B496848FFF7EDFB10E1634B16
:1020800000221A7000F0ECF90AE1604B1B78002B7B
:1020900000F001815E4B1B78052B00F2FC805C4B4D
:1020A0001B781A46624B19785A4B9954584B1B7837
:1020B0000133DAB2564B1A70524B1B78032B02D104
:1020C00000F07EF9E7E04F4B1B78042B02D1FFF7BD
:1020D0004DFDE0E0FFF7FAFCDDE04C4B1B78002BF8
:1020E00000F0DB804A4B1B78002B00F0D680484B79
:1020F0001B78013BDAB2464B1A70454B1B781A46E7
:10210000444B002199543F4B1B78032B02D100F024
:1021100057F9C2E03B4B1B78042B02D1FFF726FD99
:10212000BBE0FFF7D3FCB8E0424B01221A70374BFB
:1021300000221A703848FFF7FBFA012200213648C6
:10214000FFF710FB3C493448FFF785FB02220021D2
:102150003148FFF707FB39492F48FFF77CFB9FE029
:102160002A4B00221A70364800F0DAF998E0274B23
:102170001B78002B00F09380224B1B78042B06D198
:10218000224B00221A702F4800F0ECF987E002225F
:1021900000212148FFF7E6FA2B491F48FFF75BFBB8
:1021A000032200211C48FFF7DDFA28491A48FFF7EF
:1021B00052FB174B00221A7007220021154805F028
:1021C00074FF6CE0114B00221A70214800F0CAF92C
:1021D00066E00E4B00221A700F48FFF7A9FA0122A1
:1021E00000210D48FFF7BEFA1A490B48FFF733FBF1
:1021F000022200210848FFF7B5FA17490648FFF701
:102200002AFB4DE0980200209A020020AC02002038
:10221000AB020020A402002090020020B8A2000817
:10222000C8A20008E0A20008ECA2000800A3000871
:10223000A0020020AD02002010A3000824A3000883
:1022400034A3000848A3000858A300086CA30008A2
:1022500080A3000894A30008A8A30008154B00223F
:102260001A701548FFF764FA012200211248FFF79F
:1022700079FA12491048FFF7EEFA022200210E48BF
:10228000FFF770FA0E490C48FFF7E5FA08E000BFC7
:1022900006E000BF04E000BF02E000BF00E000BFB6
:1022A00001220849084804F03EF900BF0837BD463E
:1022B00080BD00BFAC02002090020020BCA300083B
:1022C000CCA30008A00200204403002080B485B005
:1022D00000AF0346FB71FB79B42B01D9B423FB712A
:1022E000FB794FF4FA6202FB03F30A4A82FB031202
:1022F0001A44D211DB17D31A9BB203F5FA73FB8190
:10230000054B1B68FA89DA6300BF1437BD465DF8D8
:10231000047B7047B7600BB6B402002080B582B072
:1023200000AF0346FB711E48FFF702FA00220021AE
:102330001B48FFF717FA1B491948FFF78CFA0122CF
:1023400000211748FFF70EFAFB79002B01D1164B3D
:1023500000E0164B19461248FFF77DFA02220021D1
:102360000F48FFF7FFF9FB79012B01D1104B00E07B
:10237000104B19460A48FFF76EFA0322002108485D
:10238000FFF7F0F9FB79022B01D10B4B00E00B4B6F
:1023900019460348FFF75FFA00BF0837BD4680BD06
:1023A00090020020D8A30008E8A30008F8A30008C2
:1023B00008A4000818A4000828A4000838A40008ED
:1023C00080B582B000AF2048FFF7B2F900220021AB
:1023D0001D48FFF7C7F91D491B48FFF73CFA0122CA
:1023E00000211948FFF7BEF919491748FFF733FADA
:1023F00001220A211448FFF7B5F900237B6006E0AB
:102400002A211148FFF763F97B6801337B60114B88
:102410001B781A467B689342F2DB022200210A48AD
:10242000FFF7A0F90C490848FFF715FA032200212D
:102430000548FFF797F909490348FFF70CFA00BF71
:102440000837BD4680BD00BF9002002048A40008A8
:102450000CA20008AB02002018A2000824A2000869
:1024600080B500AF1448FFF763F90022002112483D
:10247000FFF778F911491048FFF7EDF90122002123
:102480000D48FFF76FF90E490B48FFF7E4F90222F8
:1024900000210948FFF766F90A490748FFF7DBF909
:1024A000032200210448FFF75DF907490248FFF7BE
:1024B000D2F900BF80BD00BF900200205CA40008DC
:1024C00000A300086CA40008E0A2000880B500AFDB
:1024D0000F48FFF72DF9002200210D48FFF742F9C0
:1024E0000C490B48FFF7B7F9012200210848FFF714
:1024F00039F909490648FFF7AEF9032200210448DB
:10250000FFF730F905490248FFF7A5F900BF80BD84
:10251000900200207CA40008C8A20008E0A20008E5
:1025200080B582B000AF78600C48FFF701F9012256
:1025300000210A48FFF716F909490848FFF78BF907
:10254000022200210548FFF70DF979680348FFF7DB
:1025500082F900BF0837BD4680BD00BF9002002051
:1025600090A4000880B582B000AF78600C48FFF7F7
:10257000DFF8012200210A48FFF7F4F8094908486A
:10258000FFF769F9022200210548FFF7EBF87968A7
:102590000348FFF760F900BF0837BD4680BD00BFA4
:1025A000900200209CA4000880B5A2B004AF87ED83
:1025B000030AC7ED020A78603960D7ED037ABDEEF1
:1025C000E77AD7ED027AFDEEE77A17EE902A07F167
:1025D00014003B6802937B680193009217EE103A57
:1025E0000A4A642105F0EAFC07F114031846FDF7D6
:1025F0003FFE03469AB207F114014FF0FF3304483F
:1026000003F006FF00BF7837BD4680BDA4A40008D4
:1026100044030020F0B59FB004AF00F07FFC00F051
:1026200021F9FEF715FFFEF7ABFF00F01FFBFEF7E9
:1026300079FE00F0C1FA00F0CDFB7C48FEF74CFCBF
:1026400001227B497948FEF751FC3866794A3B6E96
:102650001360794803F04CF97748FEF7DDFD774BBE
:10266000724A1A60754B4E221A717448FFF7ACF823
:10267000FFF708F90821724803F0F2F901227149C5
:10268000714803F050FF714B1B78002B14D0B4201D
:10269000FFF71CFE40F6B83000F0B2FC0020FFF758
:1026A00015FE6A4B00221A70694B00221A70694BA2
:1026B00000221A70FFF7E6F8654B1B78022B40F0FA
:1026C000B0804FF00003BB654FF000037B65002333
:1026D00087F86730012387F8663017E007F1540266
:1026E00007F1580311461846FEF7A6FD034687F882
:1026F000663097F86730013387F8673097F86630AF
:10270000002B03D04FF4FA7000F07AFC97F8673092
:10271000022B03D897F86630002BDFD197F866605C
:10272000BB6D1846FDF710FF04460D467B6D18463D
:10273000FDF70AFF02460B463846CDE90223CDE9F4
:1027400000453346444A322105F038FC3B461846E2
:10275000FDF78EFD03469AB239464FF0FF333A48F3
:1027600003F056FE0023FB653C4800F0B1FC4FF03F
:10277000FF313A4800F0B1FD384800F039FEF86505
:10278000364800F077FD2B4B1B689B6A294A12687C
:1027900010469847D7ED167A97ED157A254B1B68AA
:1027A000DB8C1946F86DF0EE470AB0EE670AFFF7CA
:1027B000F1F897F86630002B1DD1D7ED167AF5EEBB
:1027C000407AF1EE10FA16D0D7ED157AF5EE407A90
:1027D000F1EE10FA0FD0D7ED167A97ED157A154B6A
:1027E0001B68DB8C1946F86DF0EE470AB0EE670AFD
:1027F000FFF7DAFE15E097F8663007F13400184A63
:102800001E2105F0DBFB07F134031846FDF730FD10
:1028100003469AB207F134014FF0FF330A4803F040
:10282000F7FD4FF4FA7000F0EBFB2CE73C020020C0
:10283000BCA400089C020020FC02002090020020A2
:10284000B4020020A002002044030020AD020020BA
:1028500098020020AC020020C8A40008F401002067
:10286000F0A4000880B594B000AF07F12003302237
:102870000021184605F019FC07F10C0300221A602C
:102880005A609A60DA601A610023BB60284B1B6CA7
:10289000274A43F080531364254B1B6C03F080538D
:1028A000BB60BB6800237B60224B1B68214A43F45A
:1028B000804313601F4B1B6803F480437B607B687D
:1028C00001233B624FF480337B620223BB634FF4EE
:1028D0008003FB6308233B644FF4A8737B640223EB
:1028E000BB640423FB6407F12003184602F018FBC5
:1028F0000346002B01D000F01FF80F23FB600223DA
:102900003B6100237B614FF4A053BB614FF48053C4
:10291000FB6107F10C030521184602F079FD03461F
:10292000002B01D000F008F800BF5037BD4680BD35
:10293000003802400070004080B400AF72B600BFA3
:1029400000BFFDE780B483B000AF00237B60104B75
:102950005B6C0F4A43F4804353640D4B5B6C03F490
:1029600080437B607B6800233B60094B1B6C084AFB
:1029700043F080531364064B1B6C03F080533B60A1
:102980003B6800BF0C37BD465DF8047B704700BF55
:102990000038024080B400AF00BFFDE780B400AF54
:1029A00000BFFDE780B400AF00BFFDE780B400AF1B
:1029B00000BFFDE780B400AF00BFFDE780B400AF0B
:1029C00000BFBD465DF8047B704780B400AF00BF18
:1029D000BD465DF8047B704780B400AF00BFBD46C4
:1029E0005DF8047B704780B500AF00F0E9FA00BFE6
:1029F00080BD000080B500AF024803F0B9FD00BF04
:102A000080BD00BF4403002080B400AF01231846FE
:102A1000BD465DF8047B704780B582B000AF78603A
:102A2000396005F0B7FB034616221A604FF0FF33FA
:102A300018460837BD4680BD80B582B000AF7860CB
:102A40004FF0FF317868FFF7E7FF00BFFDE780B583
:102A500086B000AFF860B9607A6000237B610AE05D
:102A6000AFF300800146BB685A1CBA60CAB21A7044
:102A70007B6901337B617A697B689A42F0DB7B6812
:102A800018461837BD4680BD80B586B000AFF860E7
:102A9000B9607A6000237B6109E0BB685A1CBA60A8
:102AA0001B781846AFF300807B6901337B617A693C
:102AB0007B689A42F1DB7B6818461837BD4680BDBB
:102AC00080B483B000AF78604FF0FF3318460C3706
:102AD000BD465DF8047B704780B483B000AF78607A
:102AE00039603B684FF400525A60002318460C3797
:102AF000BD465DF8047B704780B483B000AF78605A
:102B0000012318460C37BD465DF8047B704780B43E
:102B100085B000AFF860B9607A60002318461437BA
:102B2000BD465DF8047B704780B586B000AF786025
:102B3000144A154BD31A7B617B693B61134B1B68AD
:102B4000002B02D1114B124A1A60104B1A687B6895
:102B500013443A699A4207D205F01CFB03460C2243
:102B60001A604FF0FF3309E0084B1B68FB60074B0E
:102B70001A687B681344054A1360FB6818461837C7
:102B8000BD4680BD0000022000040000B00200200D
:102B9000E004002080B400AF064BD3F88830054A2B
:102BA00043F47003C2F8883000BFBD465DF8047B73
:102BB000704700BF00ED00E080B58AB000AF07F1BC
:102BC000200300221A605A603B1D00221A605A60DE
:102BD0009A60DA601A615A619A61224B224A1A603D
:102BE000204B53225A601F4B00229A601D4B44F623
:102BF0002062DA601B4B00221A611A4B00229A6194
:102C0000184802F0DDFE0346002B01D0FFF794FECA
:102C100000233B6200237B6207F120031946114821
:102C200003F02AFB0346002B01D0FFF785FE60234B
:102C30007B6040F2DC53BB600023FB6000237B61C0
:102C40003B1D08221946074802F0D2FF0346002B1D
:102C500001D0FFF771FE034800F082F800BF28376B
:102C6000BD4680BDB40200200004004080B582B0A3
:102C700000AF3B4600221A605A60154B154A1A6095
:102C8000134B53225A60124B00229A60104B4FF69E
:102C9000FF72DA600E4B00229A610D4802F0D8FDF7
:102CA0000346002B01D0FFF747FE00233B600023C3
:102CB0007B603B461946064803F0DEFA0346002BCC
:102CC00001D0FFF739FE00BF0837BD4680BD00BF09
:102CD000FC0200200010004080B485B000AF786096
:102CE0007B681B680B4A93420DD10023FB600A4BA3
:102CF0001B6C094A43F002031364074B1B6C03F07F
:102D00000203FB60FB6800BF1437BD465DF8047B1F
:102D1000704700BF000400400038024080B485B016
:102D200000AF78607B681B680B4A93420DD100238B
:102D3000FB600A4B1B6C094A43F010031364074BFA
:102D40001B6C03F01003FB60FB6800BF1437BD462B
:102D50005DF8047B704700BF00100040003802405F
:102D600080B588B000AF786007F10C0300221A60CC
:102D70005A609A60DA601A617B681B68124A934253
:102D80001DD10023BB60114B1B6B104A43F00203A3
:102D900013630E4B1B6B03F00203BB60BB68012384
:102DA000FB6002233B6100237B610023BB610223A4
:102DB000FB6107F10C031946054800F0E9FE00BF6E
:102DC0002037BD4680BD00BF0004004000380240EF
:102DD0000004024080B500AF114B124A1A60104B3C
:102DE0004FF416525A600E4B00229A600C4B002290
:102DF000DA600B4B00221A61094B0C225A61084B16
:102E000000229A61064B0022DA61054803F0B0FA0D
:102E10000346002B01D0FFF78FFD00BF80BD00BF30
:102E2000440300200014014080B58AB000AF7860F0
:102E300007F1140300221A605A609A60DA601A617E
:102E40007B681B681D4A934233D100233B611C4BB6
:102E50005B6C1B4A43F020035364194B5B6C03F01B
:102E600020033B613B690023FB60154B1B6B144A3D
:102E700043F004031363124B1B6B03F00403FB606A
:102E8000FB68C0237B610223BB610023FB6103233A
:102E90003B6208237B6207F114031946094800F0DE
:102EA00077FE00220021472000F0A9FD472000F016
:102EB000C2FD00BF2837BD4680BD00BF00140140E1
:102EC0000038024000080240DFF834D0FFF762FE0D
:102ED0000C480D490D4A002302E0D458C450043375
:102EE000C4188C42F9D30A4A0A4C002301E013604B
:102EF0000432A242FBD305F053F9FFF78BFB704776
:102F00000000022000000020D4010020A0A800083A
:102F1000D4010020DC040020FEE7000080B500AFF3
:102F20000E4B1B680D4A43F4007313600B4B1B6878
:102F30000A4A43F480631360084B1B68074A43F452
:102F400080731360032000F04FFD0F2000F008F89D
:102F5000FFF7F8FC0023184680BD00BF003C02408C
:102F600080B582B000AF7860124B1A68124B1B78A4
:102F700019464FF47A73B3FBF1F3B2FBF3F318463F
:102F800000F067FD0346002B01D001230EE07B68B3
:102F90000F2B0AD8002279684FF0FF3000F02FFD88
:102FA000064A7B681360002300E0012318460837B7
:102FB000BD4680BD00000020080000200400002065
:102FC00080B400AF064B1B781A46064B1B681344AF
:102FD000044A136000BFBD465DF8047B704700BF24
:102FE000080000208C03002080B400AF034B1B6856
:102FF0001846BD465DF8047B704700BF8C03002077
:1030000080B584B000AF7860FFF7EEFFB8607B68F2
:10301000FB60FB68B3F1FF3F05D00A4B1B781A46F3
:10302000FB681344FB6000BFFFF7DEFF0246BB688E
:10303000D31AFA689A42F7D800BF00BF1037BD46CE
:1030400080BD00BF0800002080B584B000AF78606C
:103050000023FB737B68002B01D1012333E07B68E5
:103060001B6C002B09D17868FEF7AEF97B68002253
:103070005A647B68002283F83C207B681B6C03F059
:103080001003002B18D17B681B6C23F4885323F0AA
:10309000020343F002027B681A64786800F0D8FAF1
:1030A0007B6800225A647B681B6C23F0030343F0A7
:1030B00001027B681A6401E00123FB737B68002234
:1030C00083F83C20FB7B18461037BD4680BD0000CE
:1030D00080B485B000AF78600023BB607B6893F854
:1030E0003C30012B01D10223B2E07B68012283F83E
:1030F0003C207B681B689B6803F00103012B18D000
:103100007B681B689A687B681B6842F001029A60C2
:10311000524B1B68524AA2FB03239A0C13465B00D6
:103120001344BB6002E0BB68013BBB60BB68002B83
:10313000F9D17B681B689B6803F00103012B7AD1EE
:103140007B681B6C23F4E06323F0010343F480727B
:103150007B681A647B681B685B6803F48063002BE0
:1031600007D07B681B6C23F4405343F480527B6888
:103170001A647B681B6C03F48053B3F5805F06D13F
:103180007B685B6C23F006027B685A6402E07B6814
:1031900000225A647B68002283F83C20314BFB609C
:1031A0007B681B686FF022021A60FB685B6803F0A3
:1031B0001F03002B2AD17B681B682B4A934215D032
:1031C0007B681B68294A934205D1264B5B6803F054
:1031D0001F03002B0AD07B681B68254A934236D117
:1031E000204B5B6803F01003002B30D17B681B6819
:1031F0009B6803F04053002B29D17B681B689A68B9
:103200007B681B6842F080429A6020E07B681B6804
:10321000154A93421BD17B681B689B6803F040539F
:10322000002B14D17B681B689A687B681B6842F08E
:1032300080429A600BE07B681B6C43F010027B6855
:103240001A647B685B6C43F001027B685A6400235C
:1032500018461437BD465DF8047B70470000002017
:1032600083DE1B4300230140002001400021014078
:103270000022014080B483B000AF78607B6893F88F
:103280003C30012B01D1022321E07B68012283F82D
:103290003C207B681B689A687B681B6822F00102EF
:1032A0009A607B681B689B6803F00103002B09D1BF
:1032B0007B681B6C23F4885323F0010343F0010265
:1032C0007B681A647B68002283F83C200023184640
:1032D0000C37BD465DF8047B704780B584B000AF05
:1032E000786039600023FB607B681B689B6803F48F
:1032F0008063B3F5806F13D17B681B689B6803F410
:103300008073B3F5807F0BD17B681B6C43F0200288
:103310007B681A647B68002283F83C20012363E009
:10332000FFF762FEF86021E03B68B3F1FF3F1DD07C
:103330003B68002B07D0FFF757FE0246FB68D31A05
:103340003A689A4212D27B681B681B6803F002033A
:10335000022B0BD07B681B6C43F004027B681A6461
:103360007B68002283F83C2003233DE07B681B68D8
:103370001B6803F00203022BD6D17B681B686FF039
:1033800012021A607B681B6C43F400727B681A643B
:103390007B681B689B6803F04053002B23D17B683C
:1033A0001B7E002B1FD17B681B68DB6A03F4700354
:1033B000002B06D07B681B689B6803F48063002B9E
:1033C00011D17B681B6C23F480727B681A647B6864
:1033D0001B6C03F48053002B05D17B681B6C43F0FE
:1033E00001027B681A64002318461037BD4680BD71
:1033F00080B483B000AF78607B681B68DB6C1846D4
:103400000C37BD465DF8047B7047000080B485B082
:1034100000AF786039600023BB607B6893F83C3074
:10342000012B01D1022305E17B68012283F83C20B6
:103430003B681B68092B25D97B681B68D9683B68EA
:103440001B689BB21A4613465B0013441E3B0722BF
:1034500002FA03F3DA437B681B680A40DA607B6890
:103460001B68D9683B689A683B681B689BB2184622
:1034700003465B0003441E3B9A407B681B680A437B
:10348000DA6022E07B681B6819693B681B689BB2A5
:103490001A4613465B001344072202FA03F3DA4389
:1034A0007B681B680A401A617B681B6819693B6866
:1034B0009A683B681B689BB2184603465B0003444E
:1034C0009A407B681B680A431A613B685B68062B5D
:1034D00024D87B681B68596B3B685A6813469B006D
:1034E0001344053B1F2202FA03F3DA437B681B688F
:1034F0000A405A637B681B68596B3B681B689BB228
:1035000018463B685A6813469B001344053B00FA73
:1035100003F27B681B680A435A634CE03B685B68B4
:103520000C2B24D87B681B68196B3B685A681346C0
:103530009B001344233B1F2202FA03F3DA437B6808
:103540001B680A401A637B681B68196B3B681B6821
:103550009BB218463B685A6813469B001344233BB2
:1035600000FA03F27B681B680A431A6323E07B6856
:103570001B68D96A3B685A6813469B001344413B59
:103580001F2202FA03F3DA437B681B680A40DA62FF
:103590007B681B68D96A3B681B689BB218463B680E
:1035A0005A6813469B001344413B00FA03F27B68C0
:1035B0001B680A43DA62224BFB607B681B68214A66
:1035C000934209D13B681B68122B05D1FB685B68ED
:1035D00043F48002FB685A607B681B68194A934277
:1035E00023D13B681B68102B03D03B681B68112B51
:1035F0001BD1FB685B6843F40002FB685A603B68C0
:103600001B68102B11D1104B1B68104AA2FB03231F
:103610009A0C13469B0013445B00BB6002E0BB683E
:10362000013BBB60BB68002BF9D17B68002283F8AB
:103630003C20002318461437BD465DF8047B7047D4
:1036400000230140002001400000002083DE1B43D6
:1036500080B485B000AF7860794BFB60FB685B6835
:1036600023F44032FB685A60FB685A687B685B68E9
:103670001A43FB685A607B681B685A687B681B6842
:1036800022F480725A607B681B6859687B681B69EA
:103690001A027B681B680A435A607B681B685A6879
:1036A0007B681B6822F040725A607B681B6859680F
:1036B0007B689A687B681B680A435A607B681B6852
:1036C0009A687B681B6822F400629A607B681B68BA
:1036D00099687B68DA687B681B680A439A607B6834
:1036E0009B6A584A934222D07B681B689A687B6821
:1036F0001B6822F070629A607B681B6899687B681F
:103700009A6A7B681B680A439A607B681B689A68A0
:103710007B681B6822F040529A607B681B6899683E
:103720007B68DA6A7B681B680A439A600FE07B68F3
:103730001B689A687B681B6822F070629A607B68DD
:103740001B689A687B681B6822F040529A607B680D
:103750001B689A687B681B6822F002029A607B688B
:103760001B6899687B681B7E5A007B681B680A434C
:103770009A607B6893F82030002B1BD07B681B6815
:103780005A687B681B6842F400625A607B681B6859
:103790005A687B681B6822F460425A607B681B6829
:1037A00059687B685B6A013B5A037B681B680A4364
:1037B0005A6007E07B681B685A687B681B6822F4C4
:1037C00000625A607B681B68DA6A7B681B6822F4B7
:1037D0007002DA627B681B68D96A7B68DB69013B2F
:1037E0001A057B681B680A43DA627B681B689A6863
:1037F0007B681B6822F400729A607B681B6899687A
:103800007B6893F830305A027B681B680A439A60E1
:103810007B681B689A687B681B6822F480629A60E8
:103820007B681B6899687B685B699A027B681B6888
:103830000A439A6000BF1437BD465DF8047B7047A9
:10384000002301400100000F80B485B000AF786014
:103850007B6803F00703FB600C4BDB68BB60BA6856
:103860004FF6FF031340BB60FB681A02BB681343AB
:1038700043F0BF6343F40033BB60044ABB68D360CA
:1038800000BF1437BD465DF8047B704700ED00E0D3
:1038900080B400AF044BDB681B0A03F00703184633
:1038A000BD465DF8047B704700ED00E080B483B056
:1038B00000AF0346FB7197F90730002B0BDBFB7958
:1038C00003F01F02074997F907305B09012000FA4E
:1038D00002F241F8232000BF0C37BD465DF8047B9F
:1038E000704700BF00E100E080B483B000AF034642
:1038F0003960FB7197F90730002B0ADB3B68DAB2BD
:103900000C4997F907301201D2B20B4483F8002317
:103910000AE03B68DAB20849FB7903F00F03043B85
:103920001201D2B20B441A7600BF0C37BD465DF8C7
:10393000047B704700E100E000ED00E080B489B056
:1039400000AFF860B9607A60FB6803F00703FB61C1
:10395000FB69C3F10703042B28BF0423BB61FB6988
:103960000433062B02D9FB69033B00E000237B6193
:103970004FF0FF32BB6902FA03F3DA43BB681A4027
:103980007B699A404FF0FF317B6901FA03F3D94319
:103990007B680B40134318462437BD465DF8047B13
:1039A0007047000080B582B000AF78607B68013B53
:1039B000B3F1807F01D301230FE00A4A7B68013B0A
:1039C00053600F214FF0FF30FFF78EFF054B0022B1
:1039D0009A60044B07221A60002318460837BD4638
:1039E00080BD00BF10E000E080B582B000AF78601D
:1039F0007868FFF729FF00BF0837BD4680BD80B556
:103A000086B000AF0346B9607A60FB7300237B6128
:103A1000FFF73EFF78617A68B9687869FFF78EFF33
:103A2000024697F90F3011461846FFF75DFF00BFB9
:103A30001837BD4680BD80B582B000AF0346FB712C
:103A400097F907301846FFF731FF00BF0837BD462A
:103A500080BD80B582B000AF78607868FFF7A2FFC4
:103A6000034618460837BD4680BD80B584B000AF18
:103A700078607B689B6DFB60FFF7B6FAB8607B6887
:103A800093F83530DBB2022B08D07B6880225A6570
:103A90007B68002283F83420012352E07B681B6896
:103AA0001A687B681B6822F016021A607B681B6824
:103AB0005A697B681B6822F080025A617B681B6C24
:103AC000002B03D17B689B6C002B07D07B681B68A5
:103AD0001A687B681B6822F008021A607B681B6802
:103AE0001A687B681B6822F001021A6013E0FFF776
:103AF0007BFA0246BB68D31A052B0CD97B682022BF
:103B00005A657B68032283F835207B68002283F89E
:103B10003420032315E07B681B681B6803F0010356
:103B2000002BE4D17B68DB6D3F229A40FB689A60F2
:103B30007B68012283F835207B68002283F83420DB
:103B4000002318461037BD4680BD80B483B000AF57
:103B500078607B6893F83530DBB2022B04D07B6849
:103B600080225A6501230CE07B68052283F835200A
:103B70007B681B681A687B681B6822F001021A6068
:103B8000002318460C37BD465DF8047B70470000E3
:103B900080B489B000AF7860396000237B61002376
:103BA0003B610023BB610023FB616BE10122FB69E8
:103BB00002FA03F37B613B681B687A6913403B613F
:103BC0003A697B699A4240F05A813B685B6803F02E
:103BD0000303012B05D03B685B6803F00303022B52
:103BE00030D17B689B68BB61FB695B00032202FAF2
:103BF00003F3DB43BA691340BB613B68DA68FB69D6
:103C00005B0002FA03F3BA691343BB617B68BA69CC
:103C10009A607B685B68BB610122FB6902FA03F36F
:103C2000DB43BA691340BB613B685B681B0903F067
:103C30000102FB6902FA03F3BA691343BB617B68B3
:103C4000BA695A603B685B6803F00303032B17D023
:103C50007B68DB68BB61FB695B00032202FA03F34C
:103C6000DB43BA691340BB613B689A68FB695B0040
:103C700002FA03F3BA691343BB617B68BA69DA607D
:103C80003B685B6803F00303022B23D1FB69DA086E
:103C90007B68083253F82230BB61FB6903F00703ED
:103CA0009B000F2202FA03F3DB43BA691340BB61A6
:103CB0003B681A69FB6903F007039B0002FA03F3F0
:103CC000BA691343BB61FB69DA087B680832B969DA
:103CD00043F822107B681B68BB61FB695B00032211
:103CE00002FA03F3DB43BA691340BB613B685B68CC
:103CF00003F00302FB695B0002FA03F3BA691343A2
:103D0000BB617B68BA691A603B685B6803F4403347
:103D1000002B00F0B4800023FB60604B5B6C5F4ABB
:103D200043F4804353645D4B5B6C03F48043FB605E
:103D3000FB685B4AFB699B08023352F82330BB6186
:103D4000FB6903F003039B000F2202FA03F3DB433A
:103D5000BA691340BB617B68524A93422BD07B689F
:103D6000514A934225D07B68504A93421FD07B68CA
:103D70004F4A934219D07B684E4A934213D07B68D6
:103D80004D4A93420DD07B684C4A934207D07B68E2
:103D90004B4A934201D107230EE008230CE006238F
:103DA0000AE0052308E0042306E0032304E00223DD
:103DB00002E0012300E00023FA6902F0030292000E
:103DC0009340BA691343BB613549FB699B080233D1
:103DD000BA6941F823203B4B9B68BB613B69DB43DD
:103DE000BA691340BB613B685B6803F48013002B26
:103DF00003D0BA693B691343BB61324ABB69936024
:103E0000304BDB68BB613B69DB43BA691340BB6184
:103E10003B685B6803F40013002B03D0BA693B696D
:103E20001343BB61274ABB69D360264B5B68BB6108
:103E30003B69DB43BA691340BB613B685B6803F4D1
:103E40000033002B03D0BA693B691343BB611D4AA1
:103E5000BB6953601B4B1B68BB613B69DB43BA69A1
:103E60001340BB613B685B6803F48033002B03D0D5
:103E7000BA693B691343BB61124ABB691360FB69B2
:103E80000133FB61FB690F2B7FF690AE00BF00BFD3
:103E90002437BD465DF8047B704700BF0038024000
:103EA00000380140000002400004024000080240C7
:103EB000000C0240001002400014024000180240B2
:103EC000001C0240003C014080B485B000AF786027
:103ED0000B467B807B681A697B881340002B02D0DD
:103EE0000123FB7301E00023FB73FB7B18461437AF
:103EF000BD465DF8047B704780B483B000AF786046
:103F00000B467B8013467B707B78002B03D07A882E
:103F10007B689A6103E07B881A047B689A6100BF22
:103F20000C37BD465DF8047B7047000080B584B057
:103F300000AF78607B68002B01D101232BE17B6807
:103F400093F83D30DBB2002B06D17B68002283F86A
:103F50003C207868FDF742FB7B68242283F83D20F3
:103F60007B681B681A687B681B6822F001021A6074
:103F70007B681B681A687B681B6842F400421A6001
:103F80007B681B681A687B681B6822F400421A6011
:103F900001F036FCF8607B685B68814A934207D881
:103FA000FB68804A934294BF01230023DBB206E002
:103FB000FB687D4A934294BF01230023DBB2002BB0
:103FC00001D00123E7E0FB68784AA2FB03239B0CA6
:103FD000BB607B681B685B6823F03F017B681B68E4
:103FE000BA680A435A607B681B681B6A23F03F016A
:103FF0007B685B686A4A934202D8BB68013309E078
:10400000BB684FF4967202FB03F3694AA2FB0323D9
:104010009B0901337A6812680B4313627B681B6843
:10402000DB6923F44F4222F0FF027B685B685C4946
:104030008B4219D8FB68591E7B685B685B00B1FB3B
:10404000F3F3591C40F6FC730B40002B0AD0FB68BD
:10405000591E7B685B685B00B1FBF3F30133C3F36C
:104060000B0351E004234FE07B689B68002B11D1C8
:10407000FB68581E7B6859680B465B000B44B0FB1D
:10408000F3F30133C3F30B03002B0CBF0123002315
:10409000DBB212E0FB68581E7B6859680B469B0038
:1040A0000B4499000B44B0FBF3F30133C3F30B0350
:1040B000002B0CBF01230023DBB2002B01D0012316
:1040C00022E07B689B68002B0ED1FB68581E7B6842
:1040D00059680B465B000B44B0FBF3F30133C3F3A9
:1040E0000B0343F400430FE0FB68581E7B685968DC
:1040F0000B469B000B4499000B44B0FBF3F30133D8
:10410000C3F30B0343F44043796809681343CB615D
:104110007B681B681B6823F0C0017B68DA697B68D9
:104120001B6A1A437B681B680A431A607B681B681A
:104130009B6823F4034323F0FF037A6811697A68CC
:10414000D26811437A6812680B4393607B681B68DE
:10415000DB6823F0FF017B685A697B689B691A431F
:104160007B681B680A43DA607B681B681A687B6897
:104170001B6842F001021A607B6800221A647B68A7
:10418000202283F83D207B6800221A637B6800228E
:1041900083F83E20002318461037BD4680BD00BF7F
:1041A000A08601007F841E00FF083D0083DE1B43C4
:1041B000D34D621080B588B002AFF8607A601A46BD
:1041C0000B467B8113463B81FEF70EFF7861FB684F
:1041D00093F83D30DBB2202B40F0E0807B69009308
:1041E000192301227049F86800F064FC0346002B93
:1041F00001D00223D3E0FB6893F83C30012B01D1BE
:104200000223CCE0FB68012283F83C20FB681B689A
:104210001B6803F00103012B07D0FB681B681A68B9
:10422000FB681B6842F001021A60FB681B681A6891
:10423000FB681B6822F400621A60FB68212283F885
:104240003D20FB68102283F83E20FB6800221A64A0
:10425000FB687A685A62FB683A895A85FB685B8D0D
:104260009AB2FB681A85FB68504ADA6279897B69E1
:104270003A6AF86800F0CEFA0346002B01D0012319
:104280008DE000233B61FB681B685B693B61FB6859
:104290001B689B693B613B6966E07A69396AF8682B
:1042A00000F022FD0346002B0DD0FB681B6C042B95
:1042B00007D1FB681B681A68FB681B6842F4007230
:1042C0001A6001236BE0FB685B6A1A78FB681B6865
:1042D0001A61FB685B6A5A1CFB685A62FB685B8D5B
:1042E0009BB2013B9AB2FB685A85FB681B8D013B70
:1042F0009AB2FB681A85FB681B685B6903F00403CC
:10430000042B1BD1FB681B8D002B17D0FB685B6A4D
:104310001A78FB681B681A61FB685B6A5A1CFB68A9
:104320005A62FB685B8D9BB2013B9AB2FB685A856F
:10433000FB681B8D013B9AB2FB681A857A69396A62
:10434000F86800F019FD0346002B0DD0FB681B6CCC
:10435000042B07D1FB681B681A68FB681B6842F4D2
:1043600000721A6001231AE0FB681B8D002B94D1A8
:10437000FB681B681A68FB681B6842F400721A60CD
:10438000FB68202283F83D20FB68002283F83E2052
:10439000FB68002283F83C20002300E0022318463B
:1043A0001837BD4680BD00BF020010000000FFFFAF
:1043B00080B58CB002AFF8607A601A460B467B81FC
:1043C00013463B81FEF710FE7862FB6893F83D30A0
:1043D000DBB2202B40F017827B6A00931923012265
:1043E0007C49F86800F066FB0346002B01D00223ED
:1043F0000AE2FB6893F83C30012B01D1022303E26F
:10440000FB68012283F83C20FB681B681B6803F0F3
:104410000103012B07D0FB681B681A68FB681B6847
:1044200042F001021A60FB681B681A68FB681B688F
:1044300022F400621A60FB68222283F83D20FB68A8
:10444000102283F83E20FB6800221A64FB687A6819
:104450005A62FB683A895A85FB685B8D9AB2FB68A1
:104460001A85FB685C4ADA6279897B6A3A6BF8687C
:1044700000F052FA0346002B01D00123C4E1FB688F
:104480001B8D002B13D100233B62FB681B685B690B
:104490003B62FB681B689B693B623B6AFB681B686D
:1044A0001A68FB681B6842F400721A6098E1FB68A6
:1044B0001B8D012B1BD1FB681B681A68FB681B68EE
:1044C00022F480621A600023FB61FB681B685B6951
:1044D000FB61FB681B689B69FB61FB69FB681B68F0
:1044E0001A68FB681B6842F400721A6078E1FB6886
:1044F0001B8D022B1BD1FB681B681A68FB681B68AD
:1045000022F480621A60FB681B681A68FB681B68EB
:1045100042F400621A600023BB61FB681B685B69A0
:10452000BB61FB681B689B69BB61BB6958E1FB68A9
:104530001B681A68FB681B6842F480621A600023DB
:104540007B61FB681B685B697B61FB681B689B691F
:104550007B617B6944E1FB681B8D032B00F2F180DA
:10456000FB681B8D012B23D17A6A396BF86800F048
:104570004BFC0346002B01D0012345E1FB681B687F
:104580001A69FB685B6AD2B21A70FB685B6A5A1CD4
:10459000FB685A62FB681B8D013B9AB2FB681A8567
:1045A000FB685B8D9BB2013B9AB2FB685A8517E1B1
:1045B000FB681B8D022B4ED17B6A00933B6B002264
:1045C0000649F86800F076FA0346002B08D001236C
:1045D0001AE100BF020010000000FFFF040001000C
:1045E000FB681B681A68FB681B6842F400721A605B
:1045F000FB681B681A69FB685B6AD2B21A70FB68B9
:104600005B6A5A1CFB685A62FB681B8D013B9AB2BD
:10461000FB681A85FB685B8D9BB2013B9AB2FB6815
:104620005A85FB681B681A69FB685B6AD2B21A700C
:10463000FB685B6A5A1CFB685A62FB681B8D013B76
:104640009AB2FB681A85FB685B8D9BB2013B9AB2FC
:10465000FB685A85C4E07B6A00933B6B00226C497F
:10466000F86800F027FA0346002B01D00123CBE0C5
:10467000FB681B681A68FB681B6822F480621A607A
:10468000FB681B681A69FB685B6AD2B21A70FB6828
:104690005B6A5A1CFB685A62FB681B8D013B9AB22D
:1046A000FB681A85FB685B8D9BB2013B9AB2FB6885
:1046B0005A857B6A00933B6B00225549F86800F0ED
:1046C000F9F90346002B01D001239DE0FB681B682C
:1046D0001A68FB681B6842F400721A60FB681B686A
:1046E0001A69FB685B6AD2B21A70FB685B6A5A1C73
:1046F000FB685A62FB681B8D013B9AB2FB681A8506
:10470000FB685B8D9BB2013B9AB2FB685A85FB68E4
:104710001B681A69FB685B6AD2B21A70FB685B6A35
:104720005A1CFB685A62FB681B8D013B9AB2FB68FE
:104730001A85FB685B8D9BB2013B9AB2FB685A8578
:104740004EE07A6A396BF86800F05EFB0346002B96
:1047500001D0012358E0FB681B681A69FB685B6A9B
:10476000D2B21A70FB685B6A5A1CFB685A62FB681B
:104770001B8D013B9AB2FB681A85FB685B8D9BB26F
:10478000013B9AB2FB685A85FB681B685B6903F0C2
:104790000403042B24D1FB681B8D032B07D1FB687A
:1047A0001B681A68FB681B6822F480621A60FB6849
:1047B0001B681A69FB685B6AD2B21A70FB685B6A95
:1047C0005A1CFB685A62FB681B8D013B9AB2FB685E
:1047D0001A85FB685B8D9BB2013B9AB2FB685A85D8
:1047E000FB681B8D002B7FF4B6AEFB68202283F89C
:1047F0003D20FB68002283F83E20FB68002283F8FE
:104800003C20002300E0022318462837BD4680BD27
:104810000400010080B588B002AFF8607A603B60A8
:104820000B467B81FB68DB6A7B617B69082B06D0CA
:104830007B69012B03D07B6913F5803F08D1FB68AE
:104840001B681A68FB681B6842F480721A600BE0F0
:10485000FB681B6B122B07D1FB681B681A68FB688F
:104860001B6842F480721A603B6800937B680022E8
:104870004FF00111F86800F01DF90346002B0DD030
:10488000FB681B681B6803F48073B3F5807F03D15A
:10489000FB684FF400721A64032335E0FB681B6960
:1048A000B3F5804F08D17B89DBB21A46FB681B68E1
:1048B00002F0FE021A611BE07B89DB11DBB203F020
:1048C0000603DBB263F00F03DAB2FB681B681A6100
:1048D0003B687A680E49F86800F066F90346002BD9
:1048E00001D0012310E07B89DAB2FB681B681A61F2
:1048F0003B687A680749F86800F056F90346002BD0
:1049000001D0012300E0002318461837BD4680BDC2
:10491000080001000200010080B588B002AFF86015
:104920007A603B600B467B81FB68DB6A7B61FB68DE
:104930001B681A68FB681B6842F480621A607B6916
:10494000082B06D07B69012B03D07B6913F5803FD0
:1049500008D1FB681B681A68FB681B6842F4807208
:104960001A600BE0FB681B6B112B07D1FB681B68FF
:104970001A68FB681B6842F480721A603B680093F7
:104980007B6800224FF00111F86800F093F80346AD
:10499000002B0DD0FB681B681B6803F48073B3F514
:1049A000807F03D1FB684FF400721A64032379E01F
:1049B000FB681B69B3F5804F08D17B89DBB243F0FC
:1049C0000103DAB2FB681B681A615FE07B89DB11C7
:1049D000DBB203F00603DBB263F00F03DAB2FB686D
:1049E0001B681A613B687A683049F86800F0DCF8A7
:1049F0000346002B01D0012354E07B89DAB2FB6827
:104A00001B681A613B687A682949F86800F0CCF89D
:104A10000346002B01D0012344E000233B61FB68E7
:104A20001B685B693B61FB681B689B693B613B6979
:104A3000FB681B681A68FB681B6842F480721A6086
:104A40003B6800937B6800224FF00111F86800F08A
:104A500031F80346002B0DD0FB681B681B6803F47C
:104A60008073B3F5807F03D1FB684FF400721A6442
:104A7000032317E07B89DB11DBB203F00603DBB213
:104A800063F00E03DAB2FB681B681A613B687A6850
:104A90000749F86800F088F80346002B01D001238D
:104AA00000E0002318461837BD4680BD080001000D
:104AB0000200010080B584B000AFF860B9603B60CF
:104AC0001346FB7148E03B68B3F1FF3F44D0FEF76B
:104AD0008BFA0246BB69D31A3A689A4202D33B6802
:104AE000002B39D1BB681B0CDBB2012B0DD1FB684D
:104AF0001B685B69DA43BB6813409BB2002B0CBF99
:104B000001230023DBB21A460CE0FB681B689B699B
:104B1000DA43BB6813409BB2002B0CBF0123002378
:104B2000DBB21A46FB799A4216D1FB6800221A635F
:104B3000FB68202283F83D20FB68002283F83E209A
:104B4000FB681B6C43F02002FB681A64FB680022C0
:104B500083F83C20012323E0BB681B0CDBB2012B54
:104B60000DD1FB681B685B69DA43BB6813409BB2DD
:104B7000002B0CBF01230023DBB21A460CE0FB68BC
:104B80001B689B69DA43BB6813409BB2002B0CBFC8
:104B900001230023DBB21A46FB799A4293D000230B
:104BA00018461037BD4680BD80B584B000AFF860B0
:104BB000B9607A603B6071E0FB681B685B6903F475
:104BC0008063B3F5806F23D1FB681B681A68FB68AC
:104BD0001B6842F400721A60FB681B686FF4806205
:104BE0005A61FB6800221A63FB68202283F83D208B
:104BF000FB68002283F83E20FB681B6C43F0040234
:104C0000FB681A64FB68002283F83C20012367E0FC
:104C10007B68B3F1FF3F41D0FEF7E6F902463B68FF
:104C2000D31A7A689A4202D37B68002B36D1BB68CC
:104C30001B0CDBB2012B0CD1FB681B685B69DA43F0
:104C4000BB6813409BB2002B14BF01230023DBB2CF
:104C50000BE0FB681B689B69DA43BB6813409BB29F
:104C6000002B14BF01230023DBB2002B16D0FB68FE
:104C700000221A63FB68202283F83D20FB68002293
:104C800083F83E20FB681B6C43F02002FB681A642B
:104C9000FB68002283F83C20012321E0BB681B0C49
:104CA000DBB2012B0CD1FB681B685B69DA43BB6884
:104CB00013409BB2002B14BF01230023DBB20BE097
:104CC000FB681B689B69DA43BB6813409BB2002BEF
:104CD00014BF01230023DBB2002B7FF46DAF002350
:104CE00018461037BD4680BD80B584B000AFF8606F
:104CF000B9607A6034E0F86800F0E3F80346002B0E
:104D000001D0012334E0BB68B3F1FF3F28D0FEF7A8
:104D10006BF902467B68D31ABA689A4202D3BB6821
:104D2000002B1DD1FB681B685B6903F08003802B9F
:104D300016D0FB6800221A63FB68202283F83D200E
:104D4000FB68002283F83E20FB681B6C43F02002C6
:104D5000FB681A64FB68002283F83C20012307E00B
:104D6000FB681B685B6903F08003802BC3D10023C1
:104D700018461037BD4680BD80B584B000AFF860DE
:104D8000B9607A6034E0F86800F09BF80346002BC5
:104D900001D0012334E0BB68B3F1FF3F28D0FEF718
:104DA00023F902467B68D31ABA689A4202D3BB68D9
:104DB000002B1DD1FB681B685B6903F00403042B07
:104DC00016D0FB6800221A63FB68202283F83D207E
:104DD000FB68002283F83E20FB681B6C43F0200236
:104DE000FB681A64FB68002283F83C20012307E07B
:104DF000FB681B685B6903F00403042BC3D1002329
:104E000018461037BD4680BD80B584B000AFF8604D
:104E1000B9607A6049E0FB681B685B6903F01003C6
:104E2000102B19D1FB681B686FF010025A61FB68E8
:104E300000221A63FB68202283F83D20FB680022D1
:104E400083F83E20FB681A6CFB681A64FB6800223A
:104E500083F83C20012330E0FEF7C6F802467B6869
:104E6000D31ABA689A4202D3BB68002B1DD1FB68E3
:104E70001B685B6903F04003402B16D0FB680022DF
:104E80001A63FB68202283F83D20FB68002283F828
:104E90003E20FB681B6C43F02002FB681A64FB6831
:104EA000002283F83C20012307E0FB681B685B6954
:104EB00003F04003402BAED1002318461037BD4607
:104EC00080BD80B483B000AF78607B681B685B698D
:104ED00003F48063B3F5806F1BD17B681B686FF4AC
:104EE00080625A617B6800221A637B68202283F803
:104EF0003D207B68002283F83E207B681B6C43F0DA
:104F000004027B681A647B68002283F83C2001233A
:104F100000E0002318460C37BD465DF8047B70475F
:104F200080B586B000AF78607B68002B01D101238B
:104F300067E27B681B6803F00103002B75D0884B88
:104F40009B6803F00C03042B0CD0854B9B6803F08B
:104F50000C03082B12D1824B5B6803F48003B3F57A
:104F6000800F0BD17E4B1B6803F40033002B5BD00A
:104F70007B685B68002B57D1012342E27B685B684A
:104F8000B3F5803F06D1764B1B68754A43F48033F6
:104F900013601DE07B685B68B3F5A02F0CD1704BEC
:104FA0001B686F4A43F4802313606D4B1B686C4A87
:104FB00043F4803313600BE0694B1B68684A23F4A9
:104FC00080331360664B1B68654A23F480231360AB
:104FD0007B685B68002B13D0FEF706F8386108E0A9
:104FE000FEF702F802463B69D31A642B01D903236A
:104FF00007E25B4B1B6803F40033002BF0D014E096
:10500000FDF7F2FF386108E0FDF7EEFF02463B696D
:10501000D31A642B01D90323F3E1514B1B6803F42A
:105020000033002BF0D100E000BF7B681B6803F069
:105030000203002B63D04A4B9B6803F00C03002B48
:105040000BD0474B9B6803F00C03082B1CD1444B3F
:105050005B6803F48003002B16D1414B1B6803F0FF
:105060000203002B05D07B68DB68012B01D00123F4
:10507000C7E13B4B1B6823F0F8027B681B69DB0030
:10508000374913430B603AE07B68DB68002B20D084
:10509000344B01221A60FDF7A7FF386108E0FDF7E5
:1050A000A3FF02463B69D31A022B01D90323A8E1CF
:1050B0002B4B1B6803F00203002BF0D0284B1B681E
:1050C00023F0F8027B681B69DB00254913430B6062
:1050D00015E0244B00221A60FDF786FF386108E0D6
:1050E000FDF782FF02463B69D31A022B01D9032345
:1050F00087E11B4B1B6803F00203002BF0D17B6898
:105100001B6803F00803002B36D07B685B69002B1B
:1051100016D0154B01221A60FDF766FF386108E0D2
:10512000FDF762FF02463B69D31A022B01D9032324
:1051300067E10B4B5B6F03F00203002BF0D01BE029
:10514000094B00221A60FDF74FFF38610EE0FDF7B2
:105150004BFF02463B69D31A022B07D9032350E1C8
:105160000038024000004742800E4742884B5B6F88
:1051700003F00203002BEAD17B681B6803F00403F1
:10518000002B00F097800023FB75814B1B6C03F014
:105190008053002B0FD10023BB607D4B1B6C7C4ADE
:1051A00043F0805313647A4B1B6C03F08053BB6055
:1051B000BB680123FB75774B1B6803F48073002BDE
:1051C00018D1744B1B68734A43F480731360FDF766
:1051D0000BFF386108E0FDF707FF02463B69D31A71
:1051E000022B01D903230CE16A4B1B6803F4807383
:1051F000002BF0D07B689B68012B06D1644B1B6FA2
:10520000634A43F0010313671CE07B689B68052B2E
:105210000CD15F4B1B6F5E4A43F0040313675C4B7A
:105220001B6F5B4A43F0010313670BE0584B1B6F86
:10523000574A23F001031367554B1B6F544A23F061
:10524000040313677B689B68002B15D0FDF7CCFE29
:1052500038610AE0FDF7C8FE02463B69D31A41F205
:105260008832934201D90323CBE0494B1B6F03F0F3
:105270000203002BEED014E0FDF7B6FE38610AE021
:10528000FDF7B2FE02463B69D31A41F288329342DF
:1052900001D90323B5E03E4B1B6F03F00203002B43
:1052A000EED1FB7D012B05D1394B1B6C384A23F025
:1052B000805313647B689B69002B00F0A180344B02
:1052C0009B6803F00C03082B5CD07B689B69022B66
:1052D00041D1314B00221A60FDF786FE386108E0AB
:1052E000FDF782FE02463B69D31A022B01D9032344
:1052F00087E0274B1B6803F00073002BF0D17B681D
:10530000DA697B681B6A1A437B685B6A9B011A43F4
:105310007B689B6A5B08013B1B041A437B68DB6A62
:105320001B061B4913434B601B4B01221A60FDF700
:105330005BFE386108E0FDF757FE02463B69D31A71
:10534000022B01D903235CE0114B1B6803F00073AF
:10535000002BF0D054E0104B00221A60FDF744FE01
:10536000386108E0FDF740FE02463B69D31A022B84
:1053700001D9032345E0064B1B6803F00073002BA3
:10538000F0D13DE07B689B69012B07D1012338E018
:105390000038024000700040600047421B4B5B68D1
:1053A000FB607B689B69012B28D0FB6803F48002BB
:1053B0007B68DB699A4221D1FB6803F03F027B687E
:1053C0001B6A9A421AD1FA6847F6C07313407A688A
:1053D000526A9201934211D1FB6803F440327B6818
:1053E0009B6A5B08013B1B049A4207D1FB6803F0F0
:1053F00070627B68DB6A1B069A4201D0012300E0E1
:10540000002318461837BD4680BD00BF0038024053
:1054100080B584B000AF786039607B68002B01D123
:105420000123CCE0684B1B6803F007033A689A42FB
:105430000CD9654B3A68D2B21A70634B1B6803F003
:1054400007033A689A4201D00123B8E07B681B68E1
:1054500003F00203002B20D07B681B6803F00403D9
:10546000002B05D0594B9B68584A43F4E053936096
:105470007B681B6803F00803002B05D0534B9B6827
:10548000524A43F460439360504B9B6823F0F00210
:105490007B689B684D4913438B607B681B6803F0F6
:1054A0000103002B44D07B685B68012B07D1474B7D
:1054B0001B6803F40033002B19D101237FE07B68C4
:1054C0005B68022B03D07B685B68032B07D13F4BE3
:1054D0001B6803F00073002B09D101236FE03B4BE5
:1054E0001B6803F00203002B01D1012367E0374B57
:1054F0009B6823F003027B685B68344913438B602D
:10550000FDF772FDF8600AE0FDF76EFD0246FB68EC
:10551000D31A41F28832934201D903234FE02B4B37
:105520009B6803F00C027B685B689B009A42EBD19E
:10553000254B1B6803F007033A689A420CD2224BB2
:105540003A68D2B21A70204B1B6803F007033A681E
:105550009A4201D0012332E07B681B6803F0040308
:10556000002B08D0194B9B6823F4E0527B68DB6862
:10557000164913438B607B681B6803F00803002BFC
:1055800009D0124B9B6823F460427B681B69DB00E7
:105590000E4913438B6000F021F802460B4B9B68C9
:1055A0001B0903F00F030A49CB5C22FA03F3094AF3
:1055B0001360094B1B681846FDF7D2FC0023184600
:1055C0001037BD4680BD00BF003C0240003802409D
:1055D00008A5000800000020040000202DE9B04FBD
:1055E00094B000AF00237B640023FB6400233B6482
:1055F0000023BB64794B9B6803F00C03082B0DD090
:10560000082B00F2E180002B02D0042B03D0DBE05A
:10561000734BBB64DBE0734BBB64D8E06F4B5B68E0
:1056200003F03F037B646D4B5B6803F48003002B46
:1056300063D06A4B5B689B090022BB63FA63BB6B58
:10564000C3F308033B6300237B63D7E90C45224681
:105650002B464FF000004FF00001590141EAD261A2
:10566000500102460B462146511A3961294663EB27
:1056700001037B614FF000024FF00003D7E904AB58
:1056800059468B01514643EA916351468A0151467E
:10569000B2EB0108594663EB01094FF000024FF0ED
:1056A00000034FEAC90343EA58734FEAC802904621
:1056B0009946234618EB0303BB602B4649EB0303D3
:1056C000FB604FF000024FF00003D7E90245294686
:1056D0004B02214643EAD15321464A02104619465D
:1056E0007B6C0022BB62FA62D7E90A23FBF77CFAE3
:1056F00002460B461346FB6458E0384B5B689B0937
:10570000002218461146C0F308033B6200237B6267
:10571000D7E9088942464B464FF000004FF00001A0
:10572000590141EAD261500102460B464146B2EBB3
:10573000010A494663EB010B4FF000024FF00003F2
:105740004FEA8B1343EA9A634FEA8A12B2EB0A04D8
:1057500063EB0B054FF000024FF00003EB0043EA50
:105760005473E20014461D464346E3183B604B4623
:1057700045EB03037B604FF000024FF00003D7E9D5
:10578000004529468B02214643EA915321468A026D
:10579000104619467B6C0022BB61FA61D7E90623EB
:1057A000FBF722FA02460B461346FB640B4B5B6881
:1057B0001B0C03F0030301335B003B64FA6C3B6C8E
:1057C000B2FBF3F3BB6402E0054BBB6400BFBB6CF0
:1057D00018465037BD46BDE8B08F00BF00380240C4
:1057E0000024F40000127A0080B400AF034B1B6861
:1057F0001846BD465DF8047B704700BF00000020DE
:1058000080B500AFFFF7F0FF0246054B9B689B0A8F
:1058100003F007030349CB5C22FA03F3184680BD6B
:105820000038024018A5000880B500AFFFF7DCFF84
:105830000246054B9B685B0B03F007030349CB5CF7
:1058400022FA03F3184680BD0038024018A500086C
:1058500080B582B000AF78607B68002B01D1012356
:1058600041E07B6893F83D30DBB2002B06D17B68CA
:10587000002283F83C207868FDF750FA7B6802220A
:1058800083F83D207B681A687B680433194610460C
:1058900000F070FA7B68012283F846207B680122C1
:1058A00083F83E207B68012283F83F207B68012239
:1058B00083F840207B68012283F841207B68012225
:1058C00083F842207B68012283F843207B68012211
:1058D00083F844207B68012283F845207B680122FD
:1058E00083F83D20002318460837BD4680BD0000E0
:1058F00080B485B000AF78607B6893F83D30DBB250
:10590000012B01D0012346E07B68022283F83D2071
:105910007B681B68234A934222D07B681B68B3F1E3
:10592000804F1DD07B681B681F4A934218D07B684C
:105930001B681E4A934213D07B681B681C4A934223
:105940000ED07B681B681B4A934209D07B681B689A
:10595000194A934204D07B681B68184A934211D1BC
:105960007B681B689B6803F00703FB60FB68062BE2
:1059700010D07B681B681A687B681B6842F00102C4
:105980001A6007E07B681B681A687B681B6842F036
:1059900001021A60002318461437BD465DF8047BE7
:1059A000704700BF000001400004004000080040B4
:1059B000000C00400004014000400140001800407D
:1059C00080B582B000AF78607B68002B01D10123E5
:1059D00041E07B6893F83D30DBB2002B06D17B6859
:1059E000002283F83C207868FDF776F97B68022274
:1059F00083F83D207B681A687B680433194610469B
:105A000000F0B8F97B68012283F846207B68012208
:105A100083F83E207B68012283F83F207B680122C7
:105A200083F840207B68012283F841207B680122B3
:105A300083F842207B68012283F843207B6801229F
:105A400083F844207B68012283F845207B6801228B
:105A500083F83D20002318460837BD4680BD00006E
:105A600080B584B000AF786039603B68002B09D105
:105A70007B6893F83E30DBB2012B14BF0123002377
:105A8000DBB222E03B68042B09D17B6893F83F30FE
:105A9000DBB2012B14BF01230023DBB215E03B680E
:105AA000082B09D17B6893F84030DBB2012B14BF7F
:105AB00001230023DBB208E07B6893F84130DBB2BE
:105AC000012B14BF01230023DBB2002B01D00123E3
:105AD0007CE03B68002B04D17B68022283F83E20E7
